:100000000C942A000C9447000C9447000C94470071
:100010000C9447000C9447000C9447000C94470044
:100020000C9447000C9447000C9447000C94470034
:100030000C9498150C9447000C9447000C944700BE
:100040000C9447000C9447000C9447000C94470014
:100050000C94470011241FBECFE5D8E0DEBFCDBF12
:1000600010E0A0E6B0E0EAE0FCE202C005900D92EC
:10007000A437B107D9F710E0A4E7B0E001C01D92A2
:10008000A637B107E1F70E94B6150C9403160C943D
:100090000000EF92FF920F931F937B018C0120E0F1
:1000A00030E040E05FE40E94490388238CF0C801FF
:1000B000B70120E030E040E05FE40E94C1010E940F
:1000C000A9039B01AC01205030404040504806C07D
:1000D000C801B7010E94A9039B01AC01B901CA0183
:1000E0001F910F91FF90EF900895A0E0B0E0EBE733
:1000F000F0E00C94CC15DC012B01FA019C919230BC
:1001000008F439C1EB018881823008F433C194309E
:1001100069F4843009F02FC111969C91119789815F
:10012000981709F428C1A0E6B0E025C1843009F48D
:1001300021C18230A9F4923009F01DC19A01AD01AC
:1001400088E0EA010990AE01E90109929E0181501F
:10015000C1F7E201898111969C918923818308C1AD
:10016000923009F407C112962D903C901397EB0141
:100170008A819B811496AD90BD90CD90DC901797AD
:10018000EC80FD800E811F819101281B390BB90184
:1001900037FF04C066277727621B730B6032710537
:1001A0000CF061C0121613066CF537014801062EDB
:1001B00004C096948794779467940A94D2F721E0C8
:1001C00030E040E050E004C0220F331F441F551FB1
:1001D0006A95D2F721503040404050402E213F21B7
:1001E00040235123211531054105510521F021E01E
:1001F00030E040E050E079018A01E628F72808293C
:1002000019293CC0232BD1F1260E371E350146019A
:10021000062E04C096948794779467940A94D2F734
:1002200021E030E040E050E004C0220F331F441FC3
:10023000551F6A95D2F721503040404050402A2146
:100240003B214C215D21211531054105510521F04E
:1002500021E030E040E050E059016A01A628B728CB
:10026000C828D9280BC0821593052CF01C01AA249C
:10027000BB24650103C0EE24FF24870111969C91E5
:10028000D20111968C91981709F445C0992339F041
:10029000A80197012A193B094C095D0906C0A6016E
:1002A00095012E193F09400B510B57FD08C01182D3
:1002B0003382228224833583468357831DC081E0A5
:1002C00081833382228288279927DC01821B930B4A
:1002D000A40BB50B84839583A683B7830DC0220F2F
:1002E000331F441F551F24833583468357838281E0
:1002F000938101979383828324813581468157813D
:10030000DA01C9010197A109B1098F5F9F4FAF4F72
:10031000BF4328F30BC0918333822282EA0CFB1C7B
:100320000C1D1D1DE482F5820683178383E0808304
:10033000248135814681578157FF1AC0C901AA27F8
:1003400097FDA095BA2F81709070A070B0705695EF
:10035000479537952795822B932BA42BB52B848318
:100360009583A683B7838281938101969383828349
:10037000DF0101C0D201CD01CDB7DEB7E2E10C94BF
:10038000E815A0E2B0E0E7ECF1E00C94D815698341
:100390007A838B839C832D833E834F835887E9E048
:1003A000EE2EF12CEC0EFD1ECE010196B7010E943F
:1003B000D2048E010F5E1F4FCE010596B8010E9438
:1003C000D2048A8991E089278A8BC701B801AE01DE
:1003D000475E5F4F0E9475000E94FD03A096E6E015
:1003E0000C94F415A0E2B0E0E8EFF1E00C94D8151D
:1003F00069837A838B839C832D833E834F835887C5
:10040000F9E0EF2EF12CEC0EFD1ECE010196B701A6
:100410000E94D2048E010F5E1F4FCE010596B801D7
:100420000E94D204C701B801AE01475E5F4F0E942F
:1004300075000E94FD03A096E6E00C94F415A0E27E
:10044000B0E0E5E2F2E00C94CC1569837A838B830B
:100450009C832D833E834F835887CE010196BE0136
:10046000675F7F4F0E94D204CE010596BE016F5E8A
:100470007F4F0E94D2049985923088F0898982301A
:10048000C8F0943019F4823051F404C0843029F457
:10049000923081F480E690E0C6C0923049F420E0CA
:1004A0009A858A89981321E02A87CE010996BBC0D4
:1004B000823049F420E09A858A89981321E02A8BBA
:1004C000CE014196B0C02D843E844F8458886D88FB
:1004D0007E888F88988CEE24FF248701AA24BB2471
:1004E000650140E050E060E070E0E0E0F0E0C10174
:1004F00081709070892BE9F0E60CF71C081D191D1E
:100500009A01AB012A0D3B1D4C1D5D1D80E090E062
:10051000A0E0B0E0E614F7040805190520F481E036
:1005200090E0A0E0B0E0BA01A901480F591F6A1F8E
:100530007B1FAA0CBB1CCC1CDD1C97FE08C081E0F5
:1005400090E0A0E0B0E0A82AB92ACA2ADB2A3196B6
:10055000E032F10549F0660C771C881C991C569412
:10056000479437942794C3CFFA85EA892B893C892D
:100570008B859C85280F391F2E5F3F4F17C0CA01FE
:1005800081709070892B61F016950795F794E79428
:1005900080E090E0A0E0B0E8E82AF92A0A2B1B2BC3
:1005A00076956795579547952F5F3F4F77FDE7CF36
:1005B0000CC0440F551F661F771F17FD4160EE0CDE
:1005C000FF1C001F111F21503040403090E05907A0
:1005D00090E0690790E4790760F32B8F3C8FDB0193
:1005E000CA018F779070A070B07080349105A1051A
:1005F000B10561F447FD0AC0E114F10401051105DC
:1006000029F0405C5F4F6F4F7F4F40781A8EFE1786
:1006100011F081E08A8F4D8F5E8F6F8F78A383E01A
:10062000898FCE0149960E94FD03A096E2E10C94C9
:10063000E815A8E1B0E0EFE1F3E00C94D815698388
:100640007A838B839C832D833E834F83588789E0F5
:10065000E82EF12CEC0EFD1ECE010196B7010E9492
:10066000D2048E010F5E1F4FCE010596B8010E9485
:10067000D2048985823040F08989823028F0C70110
:10068000B8010E944A0501C08FEF6896E6E00C941D
:10069000F415A8E1B0E0EFE4F3E00C94D815698319
:1006A0007A838B839C832D833E834F83588789E095
:1006B000E82EF12CEC0EFD1ECE010196B7010E9432
:1006C000D2048E010F5E1F4FCE010596B8010E9425
:1006D000D2048985823040F08989823028F0C701B0
:1006E000B8010E944A0501C08FEF6896E6E00C94BD
:1006F000F415A8E1B0E0EFE7F3E00C94D8156983B6
:100700007A838B839C832D833E834F83588789E034
:10071000E82EF12CEC0EFD1ECE010196B7010E94D1
:10072000D2048E010F5E1F4FCE010596B8010E94C4
:10073000D2048985823040F08989823028F0C7014F
:10074000B8010E944A0501C081E06896E6E00C9479
:10075000F415ACE0B0E0EFEAF3E00C94DC1569834B
:100760007A838B839C83CE010196BE016B5F7F4FA2
:100770000E94D2048D81823061F1823050F1843048
:1007800021F48E81882351F12EC02F81388537FDC9
:1007900020C06E812F3131051CF06623F9F023C093
:1007A0008EE190E0821B930B29853A854B855C8511
:1007B00004C056954795379527958A95D2F76623B5
:1007C000B1F050954095309521953F4F4F4F5F4F79
:1007D0000EC020E030E040E050E009C02FEF3FEFD6
:1007E0004FEF5FE704C020E030E040E050E8B9019F
:1007F000CA012C96E2E00C94F815DF92EF92FF927A
:100800000F931F93FC01E480F58006811781D1804E
:100810008081823048F480E090E0A0E1B0E0E82AF6
:10082000F92A0A2B1B2BA5C0843009F49FC0823003
:1008300021F4EE24FF24870105C0E114F104010531
:10084000110519F4E0E0F0E096C0628173819FEF3A
:10085000623879070CF05BC022E83FEF261B370BAC
:100860002A3131052CF020E030E040E050E02AC091
:10087000B801A701022E04C0769567955795479554
:100880000A94D2F781E090E0A0E0B0E004C0880FC5
:10089000991FAA1FBB1F2A95D2F70197A109B10979
:1008A0008E219F21A023B1230097A105B10521F03E
:1008B00081E090E0A0E0B0E09A01AB01282B392B59
:1008C0004A2B5B2BDA01C9018F779070A070B07052
:1008D00080349105A105B10539F427FF09C0205CDA
:1008E0003F4F4F4F5F4F04C0215C3F4F4F4F5F4F13
:1008F000E0E0F0E02030A0E03A07A0E04A07A0E402
:100900005A0710F0E1E0F0E079018A0127C0603871
:10091000710564F5FB01E158FF4FD801C7018F77DE
:100920009070A070B07080349105A105B10539F4C4
:10093000E7FE0DC080E490E0A0E0B0E004C08FE3EB
:1009400090E0A0E0B0E0E80EF91E0A1F1B1F17FFA1
:1009500005C016950795F794E794319687E01695AC
:100960000795F794E7948A95D1F705C0EE24FF2404
:100970008701EFEFF0E06E2F679566276795902F60
:100980009F77D794DD24D7948E2F8695492F462BB9
:10099000582F5D29B701CA011F910F91FF90EF9069
:1009A000DF900895FC01DB01408151812281622F9B
:1009B0006F7770E0221F2227221F9381892F880FD3
:1009C000822B282F30E0991F9927991F11969C930D
:1009D000119721153105A9F54115510561057105DD
:1009E00011F482E037C082E89FEF13969C938E93B8
:1009F00012979A01AB0167E0220F331F441F551F66
:100A00006A95D1F783E08C930DC0220F331F441FEA
:100A1000551F12968D919C911397019713969C9355
:100A20008E931297203080E0380780E0480780E4FA
:100A3000580758F314962D933D934D935C93179755
:100A400008952F3F310579F4411551056105710570
:100A500019F484E08C93089564FF03C081E08C93C3
:100A600012C01C9210C02F57304013963C932E9307
:100A7000129783E08C9387E0440F551F661F771F02
:100A80008A95D1F7706414964D935D936D937C9322
:100A9000179708951F93DC01FB019C91923008F495
:100AA00047C08081823008F443C0943051F41196DD
:100AB0001C91843099F58181682F70E0611B710968
:100AC0003FC0843021F0923031F48230B9F181811D
:100AD000882389F12DC011961C9111978230F1F075
:100AE00081811817D9F412962D913C911397828128
:100AF00093818217930794F028173907BCF0149656
:100B00008D919D910D90BC91A02D248135814681C0
:100B10005781281739074A075B0718F4112341F05A
:100B20000AC082179307A407B50740F4112319F0F0
:100B300061E070E005C06FEF7FEF02C060E070E041
:100B4000CB011F910895DF93CF93CDB7DEB7EAE3D2
:100B5000F0E08FEF8083E7E3F0E08FE48083E4E36D
:100B6000F0E08FEF8083E1E3F0E08FEF8083CF91BF
:100B7000DF910895DF93CF93CDB7DEB72B970FB6F4
:100B8000F894DEBF0FBECDBF8A836B8319828A8142
:100B90008830D8F58B81282F30E03B872A878A85DB
:100BA0009B85009731F02A853B8521303105B1F0D6
:100BB00029C0ABE3B0E0EBE3F0E08081482F8A810D
:100BC000282F30E081E090E0022E02C0880F991FAC
:100BD0000A94E2F7809584238C93F4C0ABE3B0E0F1
:100BE000EBE3F0E08081482F8A81282F30E081E01C
:100BF00090E0022E02C0880F991F0A94E2F7842B1E
:100C00008C93E0C082E08983DDC08A81883008F45B
:100C100045C08A81803108F041C08B81282F30E0A7
:100C20003987288788859985009731F02885398507
:100C300021303105C9F02FC0A8E3B0E0E8E3F0E0CF
:100C40008081482F8A81882F90E09C012770307026
:100C500081E090E0022E02C0880F991F0A94E2F70B
:100C6000809584238C93AEC0A8E3B0E0E8E3F0E085
:100C70008081482F8A81882F90E09C0127703070F6
:100C800081E090E0022E02C0880F991F0A94E2F7DB
:100C9000842B8C9397C082E0898394C08A818031B1
:100CA00008F445C08A81883108F041C08B81282F23
:100CB00030E03F832E838E819F81009731F02E811B
:100CC0003F8121303105C9F02FC0A5E3B0E0E5E355
:100CD000F0E08081482F8A81882F90E09C01277066
:100CE000307081E090E0022E02C0880F991F0A94B4
:100CF000E2F7809584238C9365C0A5E3B0E0E5E33B
:100D0000F0E08081482F8A81882F90E09C01277035
:100D1000307081E090E0022E02C0880F991F0A9483
:100D2000E2F7842B8C934EC082E089834BC08A818A
:100D3000883108F445C08A81803208F041C08B8137
:100D4000282F30E03D832C838C819D81009731F0EA
:100D50002C813D8121303105C9F02FC0A2E3B0E0E4
:100D6000E2E3F0E08081482F8A81882F90E09C01A7
:100D70002770307081E090E0022E02C0880F991F2A
:100D80000A94E2F7809584238C931CC0A2E3B0E020
:100D9000E2E3F0E08081482F8A81882F90E09C0177
:100DA0002770307081E090E0022E02C0880F991FFA
:100DB0000A94E2F7842B8C9305C082E0898302C0F9
:100DC00082E0898389812B960FB6F894DEBF0FBE2F
:100DD000CDBFCF91DF910895DF93CF9300D000D0A6
:100DE000CDB7DEB78A837C836B8319828B819C812C
:100DF000009709F46EC08A818830A0F4E9E3F0E03E
:100E00008081282F30E08A81882F90E0A90102C0DC
:100E1000559547958A95E2F7CA018170EB81FC816F
:100E2000808359C08A818830C8F08A818031B0F4CB
:100E3000E6E3F0E08081282F30E08A81882F90E07F
:100E400087709070A90102C0559547958A95E2F781
:100E5000CA018170EB81FC8180833DC08A81803131
:100E6000C8F08A818831B0F4E3E3F0E08081282F74
:100E700030E08A81882F90E087709070A90102C0CD
:100E8000559547958A95E2F7CA018170EB81FC81FF
:100E9000808321C08A818831C8F08A818032B0F491
:100EA000E0E3F0E08081282F30E08A81882F90E015
:100EB00087709070A90102C0559547958A95E2F711
:100EC000CA018170EB81FC81808305C082E0898347
:100ED00002C083E0898389810F900F900F900F905B
:100EE000CF91DF910895DF93CF9300D0CDB7DEB7D8
:100EF00089836A8389816A810E94BA050F900F9065
:100F0000CF91DF910895DF93CF93CDB7DEB72897C8
:100F10000FB6F894DEBF0FBECDBF9C838B837E835C
:100F20006D834F831A8219821DC08981282F30E07A
:100F30008B819C81FC01E20FF31F40818981282F66
:100F400030E08D819E81FC01E20FF31F9081842FA0
:100F5000692F0E94BA058A838A81882339F489819E
:100F60008F5F898399818F819817F8F228960FB641
:100F7000F894DEBF0FBECDBFCF91DF9108950F93E0
:100F80001F93DF93CF93CDB7DEB7CE58D0400FB6C7
:100F9000F894DEBF0FBECDBFFE01E257FF4F1082B7
:100FA000FE01E357FF4F1082FE01E257FF4F108210
:100FB0000C94F80FFE01E257FF4F8081282F30E09C
:100FC000C901880F991F820F931F880F991F880FDF
:100FD000991FFC01E859FF4F80818170813009F031
:100FE00075C4FE01E757FF4F80E090E0A0EFB1E449
:100FF00080839183A283B3838E010B571F4FFE0121
:10100000E757FF4F608171818281938120E030E05A
:101010004AEF54E40E941F02DC01CB01F8018083F7
:101020009183A283B383FE01EB57FF4F60817181EF
:101030008281938120E030E040E85FE30E94790301
:10104000882344F4FE01ED57FF4F81E090E0918347
:10105000808364C0FE01EB57FF4F60817181828104
:10106000938120E03FEF4FE757E40E9419031816E1
:101070000CF043C0FE01E757FF4F60817181828110
:10108000938120E030E040E251E40E941F02DC0145
:10109000CB018E010D571F4FBC01CD010E944900AD
:1010A000DC01CB01F801918380831FC0FE01EF5763
:1010B000FF4F88EC90E091838083FE01EF57FF4F54
:1010C000808191810197F1F7FE01EF57FF4F9183E6
:1010D0008083DE01AD57BF4FFE01ED57FF4F80818A
:1010E0009181019711969C938E93FE01ED57FF4FCE
:1010F000808191810097D1F627C08E010D571F4F37
:10110000FE01EB57FF4F60817181828193810E94C4
:101110004900DC01CB01F80191838083DE01A158F5
:10112000BF4FFE01ED57FF4F808191818D939C93BE
:10113000FE01E158FF4F808191810197F1F7FE0197
:10114000E158FF4F91838083FE01E257FF4F80817A
:10115000282F30E0C901880F991F820F931F880F35
:10116000991F880F991FFC01E859FF4F80818695D0
:101170008170882F90E0880F991F880F991F880F22
:10118000991F482F4063FE01E257FF4F8081282FAF
:1011900030E0C901880F991F820F931F880F991F94
:1011A000880F991FFC01E859FF4F8081869586952D
:1011B0008170882F90E0880F991F880F991F842BCA
:1011C000FE01E357FF4F8083FE01E257FF4FDE0130
:1011D000A357BF4F80816C910E943F13FE01E558D9
:1011E000FF4F80E090E0A0E8BFE380839183A2837B
:1011F000B3838E0109581F4FFE01E558FF4F6081F0
:1012000071818281938120E030E04AEF54E40E94B2
:101210001F02DC01CB01F80180839183A283B38399
:10122000FE01E958FF4F608171818281938120E046
:1012300030E040E85FE30E947903882344F4FE0134
:10124000EB58FF4F81E090E09183808364C0FE0102
:10125000E958FF4F608171818281938120E03FEFE7
:101260004FE757E40E94190318160CF043C0FE0123
:10127000E558FF4F608171818281938120E030E0E9
:1012800040E251E40E941F02DC01CB018E010B58A9
:101290001F4FBC01CD010E944900DC01CB01F801C8
:1012A000918380831FC0FE01ED58FF4F88EC90E0D2
:1012B00091838083FE01ED58FF4F808191810197DA
:1012C000F1F7FE01ED58FF4F91838083DE01AB58AB
:1012D000BF4FFE01EB58FF4F80819181019711961E
:1012E0009C938E93FE01EB58FF4F80819181009774
:1012F000D1F627C08E010B581F4FFE01E958FF4F52
:1013000060817181828193810E944900DC01CB015F
:10131000F80191838083DE01AF58BF4FFE01EB5887
:10132000FF4F808191818D939C93FE01EF58FF4F79
:10133000808191810197F1F7FE01EF58FF4F918372
:101340008083FE01E257FF4F8081282F30E0C901E2
:10135000880F991F820F931F880F991F880F991F5D
:10136000FC01E859FF4F80818695869586958170AE
:10137000882F90E0880F991F880F991F482F486089
:10138000FE01E257FF4F8081282F30E0C901880F0E
:10139000991F820F931F880F991F880F991FFC01B7
:1013A000E859FF4F808182958F708170882F90E07F
:1013B000880F991F482BFE01E257FF4F8081282F8D
:1013C00030E0C901880F991F820F931F880F991F62
:1013D000880F991FFC01E859FF4F808182958695FF
:1013E00087708170842BFE01E357FF4F8083FE01DD
:1013F000E257FF4FDE01A357BF4F80816C910E94DF
:101400003F13FE01E359FF4F80E090E0A0E8BFE307
:1014100080839183A283B3838E0107591F4FFE01FE
:10142000E359FF4F608171818281938120E030E038
:101430004AEF54E40E941F02DC01CB01F8018083D3
:101440009183A283B383FE01E759FF4F60817181CD
:101450008281938120E030E040E85FE30E947903DD
:10146000882344F4FE01E959FF4F81E090E0918325
:10147000808364C0FE01E759FF4F608171818281E2
:10148000938120E03FEF4FE757E40E9419031816BD
:101490000CF043C0FE01E359FF4F608171818281EE
:1014A000938120E030E040E251E40E941F02DC0121
:1014B000CB018E0109591F4FBC01CD010E9449008B
:1014C000DC01CB01F801918380831FC0FE01EB5941
:1014D000FF4F88EC90E091838083FE01EB59FF4F32
:1014E000808191810197F1F7FE01EB59FF4F9183C4
:1014F0008083DE01A959BF4FFE01E959FF4F80816A
:101500009181019711969C938E93FE01E959FF4FAB
:10151000808191810097D1F627C08E0109591F4F14
:10152000FE01E759FF4F60817181828193810E94A2
:101530004900DC01CB01F80191838083DE01AD59C4
:10154000BF4FFE01E959FF4F808191818D939C939C
:10155000FE01ED59FF4F808191810197F1F7FE0166
:10156000ED59FF4F91838083FE01E257FF4F808149
:1015700061E00E943F13FE01E15AFF4F80E090E0DE
:10158000A0E4B0E480839183A283B3838E01055AE3
:101590001F4FFE01E15AFF4F60817181828193816B
:1015A00020E030E04AEF54E40E941F02DC01CB014E
:1015B000F80180839183A283B383FE01E55AFF4F34
:1015C000608171818281938120E030E040E85FE3B7
:1015D0000E947903882344F4FE01E75AFF4F81E01B
:1015E00090E09183808364C0FE01E55AFF4F6081E3
:1015F00071818281938120E03FEF4FE757E40E94A1
:10160000190318160CF043C0FE01E15AFF4F608128
:1016100071818281938120E030E040E251E40E94B8
:101620001F02DC01CB018E01075A1F4FBC01CD0107
:101630000E944900DC01CB01F801918380831FC027
:10164000FE01E95AFF4F88EC90E091838083FE0110
:10165000E95AFF4F808191810197F1F7FE01E95A24
:10166000FF4F91838083DE01A75ABF4FFE01E75AE7
:10167000FF4F80819181019711969C938E93FE017B
:10168000E75AFF4F808191810097D1F627C08E01E4
:10169000075A1F4FFE01E55AFF4F60817181828119
:1016A00093810E944900DC01CB01F8019183808382
:1016B000DE01AB5ABF4FFE01E75AFF4F8081918197
:1016C0008D939C93FE01EB5AFF4F8081918101978E
:1016D000F1F7FE01EB5AFF4F91838083FE01E25741
:1016E000FF4F8081282F30E0C901880F991F820F9A
:1016F000931F880F991F880F991FFC01E859FF4F0E
:10170000808182958695869583708170882F90E080
:10171000880F991F482F4460FE01E257FF4F8081D8
:10172000282F30E0C901880F991F820F931F880F5F
:10173000991F880F991FFC01E859FF4F8081881F6E
:101740008827881F842BFE01E357FF4F8083FE010B
:10175000E257FF4FDE01A357BF4F80816C910E947B
:101760003F13FE01EF5AFF4F80E090E0A0E4B0E4A9
:1017700080839183A283B3838E01035B1F4FFE019D
:10178000EF5AFF4F608171818281938120E030E0C8
:101790004AEF54E40E941F02DC01CB01F801808370
:1017A0009183A283B383FE01E35BFF4F608171816C
:1017B0008281938120E030E040E85FE30E9479037A
:1017C000882344F4FE01E55BFF4F81E090E09183C4
:1017D000808364C0FE01E35BFF4F60817181828181
:1017E000938120E03FEF4FE757E40E94190318165A
:1017F0000CF043C0FE01EF5AFF4F6081718182817E
:10180000938120E030E040E251E40E941F02DC01BD
:10181000CB018E01055B1F4FBC01CD010E94490029
:10182000DC01CB01F801918380831FC0FE01E75BDF
:10183000FF4F88EC90E091838083FE01E75BFF4FD0
:10184000808191810197F1F7FE01E75BFF4F918362
:101850008083DE01A55BBF4FFE01E55BFF4F80810A
:101860009181019711969C938E93FE01E55BFF4F4A
:10187000808191810097D1F6B2C38E01055B1F4F25
:10188000FE01E35BFF4F60817181828193810E9441
:101890004900DC01CB01F80191838083DE01A95B63
:1018A000BF4FFE01E55BFF4F8081918111969C93B4
:1018B0008E93FE01E95BFF4F808191810197F1F7E3
:1018C000FE01E95BFF4F9183808389C3FE01ED5BDD
:1018D000FF4F80E090E0A0EFB1E480839183A2838A
:1018E000B3838E01015C1F4FFE01ED5BFF4F6081F2
:1018F00071818281938120E030E04AEF54E40E94BC
:101900001F02DC01CB01F80180839183A283B383A2
:10191000FE01FF96608171818281938120E030E039
:1019200040E85FE30E94790388232CF481E090E093
:101930009EAF8DAF46C0FE01FF96608171818281AE
:10194000938120E03FEF4FE757E40E9419031816F8
:1019500064F5FE01ED5BFF4F6081718182819381AF
:1019600020E030E040E251E40E941F02DC01CB01A4
:10197000BC01CD010E944900DC01CB019EAF8DAFBF
:101980000FC088EC90E09CAF8BAF8BAD9CAD019706
:10199000F1F79CAF8BAF8DAD9EAD01979EAF8DAF34
:1019A0008DAD9EAD009769F716C0FE01FF96608170
:1019B0007181828193810E944900DC01CB019EAF3D
:1019C0008DAF8DAD9EAD9AAF89AF89AD9AAD0197C0
:1019D000F1F79AAF89AFFE01E257FF4F808160E2D5
:1019E0000E943F13FE01E257FF4F808160E20E9498
:1019F0003F13FE01E257FF4F8081282F30E0C901DD
:101A0000880F991F820F931F880F991F880F991FA6
:101A1000FC01E859FF4F808186958170882F90E006
:101A20009695982F882797958795482F4062FE01B5
:101A3000E257FF4F8081282F30E0C901880F991F9E
:101A4000820F931F880F991F880F991FFC01E85977
:101A5000FF4F8081869586958170882F90E00024C5
:101A6000969587950794969587950794982F802D3E
:101A7000842BFE01E357FF4F8083FE01E257FF4FA7
:101A8000DE01A357BF4F80816C910E943F1380E01D
:101A900090E0A0E8BFE38DAB9EABAFABB8AF6DA954
:101AA0007EA98FA998AD20E030E04AEF54E40E946F
:101AB0001F02DC01CB0189AB9AABABABBCAB69A914
:101AC0007AA98BA99CA920E030E040E85FE30E945E
:101AD000790388232CF481E090E098AB8FA73FC076
:101AE00069A97AA98BA99CA920E03FEF4FE757E4A9
:101AF0000E94190318164CF56DA97EA98FA998ADFF
:101B000020E030E040E251E40E941F02DC01CB0102
:101B1000BC01CD010E944900DC01CB0198AB8FA72D
:101B20000FC088EC90E09EA78DA78DA59EA501977C
:101B3000F1F79EA78DA78FA598A9019798AB8FA7BE
:101B40008FA598A9009769F714C069A97AA98BA9EC
:101B50009CA90E944900DC01CB0198AB8FA78FA5FF
:101B600098A99CA78BA78BA59CA50197F1F79CA78B
:101B70008BA7FE01E257FF4F808160E00E943F1378
:101B8000FE01E257FF4F8081282F30E0C901880F06
:101B9000991F820F931F880F991F880F991FFC01AF
:101BA000E859FF4F80818695869586958170882FAC
:101BB00090E00024969587950794969587950794CD
:101BC000982F802D482F4068FE01E257FF4F8081FB
:101BD000282F30E0C901880F991F820F931F880FAB
:101BE000991F880F991FFC01E859FF4F808182954A
:101BF0008F708170882F90E0880F991F8295929541
:101C0000907F9827807F9827482BFE01E257FF4F4F
:101C10008081282F30E0C901880F991F820F931F00
:101C2000880F991F880F991FFC01E859FF4F808189
:101C30008295869587708170882F90E08295929525
:101C4000907F9827807F9827842BFE01E357FF4FD2
:101C50008083FE01E257FF4FDE01A357BF4F808113
:101C60006C910E943F1380E090E0A0E8BFE38FA357
:101C700098A7A9A7BAA76FA178A589A59AA520E0DA
:101C800030E04AEF54E40E941F02DC01CB018BA339
:101C90009CA3ADA3BEA36BA17CA18DA19EA120E0BE
:101CA00030E040E85FE30E94790388232CF481E070
:101CB00090E09AA389A33FC06BA17CA18DA19EA1B6
:101CC00020E03FEF4FE757E40E94190318164CF548
:101CD0006FA178A589A59AA520E030E040E251E403
:101CE0000E941F02DC01CB01BC01CD010E94490012
:101CF000DC01CB019AA389A30FC088EC90E098A3E4
:101D00008F8F8F8D98A10197F1F798A38F8F89A15D
:101D10009AA101979AA389A389A19AA1009769F72B
:101D200014C06BA17CA18DA19EA10E944900DC0181
:101D3000CB019AA389A389A19AA19E8F8D8F8D8DA6
:101D40009E8D0197F1F79E8F8D8FFE01E257FF4F19
:101D5000808160E00E943F13FE01E257FF4F8081C7
:101D600060E10E943F1380E090E0A0E4B0E4898F3E
:101D70009A8FAB8FBC8F698D7A8D8B8D9C8D20E077
:101D800030E04AEF54E40E941F02DC01CB018D8B4E
:101D90009E8BAF8BB88F6D897E898F89988D20E05F
:101DA00030E040E85FE30E94790388232CF481E06F
:101DB00090E09C8B8B8B3FC06D897E898F89988D3D
:101DC00020E03FEF4FE757E40E94190318164CF547
:101DD000698D7A8D8B8D9C8D20E030E040E251E45E
:101DE0000E941F02DC01CB01BC01CD010E94490011
:101DF000DC01CB019C8B8B8B0FC088EC90E09A8B25
:101E0000898B89899A890197F1F79A8B898B8B89BC
:101E10009C8901979C8B8B8B8B899C89009769F798
:101E200014C06D897E898F89988D0E944900DC01DC
:101E3000CB019C8B8B8B8B899C89988B8F878F8513
:101E400098890197F1F7988B8F87FE01E257FF4F32
:101E5000808160E00E943F13FE01E257FF4F8081C6
:101E6000282F30E0C901880F991F820F931F880F18
:101E7000991F880F991FFC01E859FF4F80818295B7
:101E80008695869583708170882F90E0880F991FC2
:101E900082959295907F9827807F9827482F40645D
:101EA000FE01E257FF4F8081282F30E0C901880FE3
:101EB000991F820F931F880F991F880F991FFC018C
:101EC000E859FF4F8081881F8827881F882F90E05E
:101ED00082959295907F9827807F9827842BFE018A
:101EE000E357FF4F8083FE01E257FF4FDE01A35708
:101EF000BF4F80816C910E943F1380E090E0A0E48E
:101F0000B0E48B879C87AD87BE876B857C858D858C
:101F10009E8520E030E04AEF54E40E941F02DC017D
:101F2000CB018F839887A987BA876F817885898548
:101F30009A8520E030E040E85FE30E94790388233F
:101F40002CF481E090E09E838D833FC06F81788583
:101F500089859A8520E03FEF4FE757E40E941903F7
:101F600018164CF56B857C858D859E8520E030E0CC
:101F700040E251E40E941F02DC01CB01BC01CD0113
:101F80000E944900DC01CB019E838D830FC088EC49
:101F900090E09C838B838B819C810197F1F79C83DC
:101FA0008B838D819E8101979E838D838D819E8100
:101FB000009769F714C06F81788589859A850E949A
:101FC0004900DC01CB019E838D838D819E819A83A4
:101FD000898389819A810197F1F79A838983DE0148
:101FE000A257BF4FFE01E257FF4F80818F5F8C9356
:101FF000FE01E257FF4F8081882311F40C94DA0729
:10200000C257DF4F0FB6F894DEBF0FBECDBFCF91E2
:10201000DF911F910F910895DF93CF93CDB7DEB776
:10202000AC970FB6F894DEBF0FBECDBF8BA76CA7E1
:102030008BA5282F30E0C901880F991F820F931FAD
:10204000880F991F880F991FFC01E859FF4F808165
:102050008170813009F077C08BA56CA50E943F1379
:1020600080E090E0A0E8BFE38FA398A7A9A7BAA754
:102070006FA178A589A59AA520E030E04AEF54E445
:102080000E941F02DC01CB018BA39CA3ADA3BEA3C6
:102090006BA17CA18DA19EA120E030E040E85FE330
:1020A0000E94790388232CF481E090E09AA389A30D
:1020B0003FC06BA17CA18DA19EA120E03FEF4FE727
:1020C00057E40E94190318164CF56FA178A589A54D
:1020D0009AA520E030E040E251E40E941F02DC01BA
:1020E000CB01BC01CD010E944900DC01CB019AA3C8
:1020F00089A30FC088EC90E098A38F8F8F8D98A153
:102100000197F1F798A38F8F89A19AA101979AA3BC
:1021100089A389A19AA1009769F705C16BA17CA148
:102120008DA19EA10E944900DC01CB019AA389A345
:1021300089A19AA19E8F8D8F8D8D9E8D0197F1F72C
:102140009E8F8D8FF0C08BA56CA50E943F1380E001
:1021500090E0A0E8BFE3898F9A8FAB8FBC8F698D29
:102160007A8D8B8D9C8D20E030E04AEF54E40E9404
:102170001F02DC01CB018D8B9E8BAF8BB88F6D89DD
:102180007E898F89988D20E030E040E85FE30E94EF
:10219000790388232CF481E090E09C8B8B8B3FC0EB
:1021A0006D897E898F89988D20E03FEF4FE757E456
:1021B0000E94190318164CF5698D7A8D8B8D9C8DB4
:1021C00020E030E040E251E40E941F02DC01CB013C
:1021D000BC01CD010E944900DC01CB019C8B8B8BA3
:1021E0000FC088EC90E09A8B898B89899A89019736
:1021F000F1F79A8B898B8B899C8901979C8B8B8BB0
:102200008B899C89009769F714C06D897E898F89B5
:10221000988D0E944900DC01CB019C8B8B8B8B89B4
:102220009C89988B8F878F8598890197F1F7988B78
:102230008F878CA5982F9295907F8BA5692F0E94F0
:102240003F1380E090E0A0E8BFE38B879C87AD87D9
:10225000BE876B857C858D859E8520E030E04AEFCA
:1022600054E40E941F02DC01CB018F839887A98769
:10227000BA876F81788589859A8520E030E040E8CB
:102280005FE30E94790388232CF481E090E09E8331
:102290008D833FC06F81788589859A8520E03FEFE7
:1022A0004FE757E40E94190318164CF56B857C859F
:1022B0008D859E8520E030E040E251E40E941F02BF
:1022C000DC01CB01BC01CD010E944900DC01CB0146
:1022D0009E838D830FC088EC90E09C838B838B81E1
:1022E0009C810197F1F79C838B838D819E8101975F
:1022F0009E838D838D819E81009769F714C06F81C5
:10230000788589859A850E944900DC01CB019E83EE
:102310008D838D819E819A83898389819A8101979A
:10232000F1F79A838983AC960FB6F894DEBF0FBE9F
:10233000CDBFCF91DF910895DF93CF93CDB7DEB7B7
:10234000AC970FB6F894DEBF0FBECDBF8BA76CA7BE
:102350008BA5282F30E0C901880F991F820F931F8A
:10236000880F991F880F991FFC01E759FF4F808143
:1023700061E00E94BA058BA5282F30E0C901880FC3
:10238000991F820F931F880F991F880F991FFC01B7
:10239000E859FF4F80818170813009F077C08BA5AB
:1023A0006CA50E94621380E090E0A0E8BFE38FA3D9
:1023B00098A7A9A7BAA76FA178A589A59AA520E093
:1023C00030E04AEF54E40E941F02DC01CB018BA3F2
:1023D0009CA3ADA3BEA36BA17CA18DA19EA120E077
:1023E00030E040E85FE30E94790388232CF481E029
:1023F00090E09AA389A33FC06BA17CA18DA19EA16F
:1024000020E03FEF4FE757E40E94190318164CF500
:102410006FA178A589A59AA520E030E040E251E4BB
:102420000E941F02DC01CB01BC01CD010E944900CA
:10243000DC01CB019AA389A30FC088EC90E098A39C
:102440008F8F8F8D98A10197F1F798A38F8F89A116
:102450009AA101979AA389A389A19AA1009769F7E4
:1024600005C16BA17CA18DA19EA10E944900DC0148
:10247000CB019AA389A389A19AA19E8F8D8F8D8D5F
:102480009E8D0197F1F79E8F8D8FF0C08BA56CA567
:102490000E94621380E090E0A0E8BFE3898F9A8FEA
:1024A000AB8FBC8F698D7A8D8B8D9C8D20E030E059
:1024B0004AEF54E40E941F02DC01CB018D8B9E8BFE
:1024C000AF8BB88F6D897E898F89988D20E030E041
:1024D00040E85FE30E94790388232CF481E090E0D8
:1024E0009C8B8B8B3FC06D897E898F89988D20E076
:1024F0003FEF4FE757E40E94190318164CF5698D1A
:102500007A8D8B8D9C8D20E030E040E251E40E947A
:102510001F02DC01CB01BC01CD010E944900DC019E
:10252000CB019C8B8B8B0FC088EC90E09A8B898BB6
:1025300089899A890197F1F79A8B898B8B899C8974
:1025400001979C8B8B8B8B899C89009769F714C0B2
:102550006D897E898F89988D0E944900DC01CB01AD
:102560009C8B8B8B8B899C89988B8F878F85988987
:102570000197F1F7988B8F878CA5982F9295907F74
:102580008BA5692F0E94621380E090E0A0E8BFE372
:102590008B879C87AD87BE876B857C858D859E8567
:1025A00020E030E04AEF54E40E941F02DC01CB013E
:1025B0008F839887A987BA876F81788589859A855F
:1025C00020E030E040E85FE30E94790388232CF4A8
:1025D00081E090E09E838D833FC06F8178858985FF
:1025E0009A8520E03FEF4FE757E40E941903181641
:1025F0004CF56B857C858D859E8520E030E040E242
:1026000051E40E941F02DC01CB01BC01CD010E94FC
:102610004900DC01CB019E838D830FC088EC90E0E4
:102620009C838B838B819C810197F1F79C838B83A7
:102630008D819E8101979E838D838D819E810097E0
:1026400069F714C06F81788589859A850E94490051
:10265000DC01CB019E838D838D819E819A8389834A
:1026600089819A810197F1F79A838983AC960FB695
:10267000F894DEBF0FBECDBFCF91DF910895DF93F9
:10268000CF9300D0CDB7DEB789836A838981282FA5
:1026900030E0C901880F991F820F931F880F991F7F
:1026A000880F991FFC01E759FF4F808160E00E946D
:1026B000BA0589816A810E9462130F900F90CF91B1
:1026C000DF910895DF93CF93CDB7DEB76F970FB645
:1026D000F894DEBF0FBECDBF8E8F6F8F8E8D282FEB
:1026E00030E0C901880F991F820F931F880F991F2F
:1026F0000196880F991FFC01E859FF4F808160E027
:102700000E94BA058E8D282F30E0C901880F991FCD
:10271000820F931F880F991F880F991FFC01E5599D
:10272000FF4F808161E00E94BA058E8D282F30E036
:10273000C901880F991F820F931F880F991F880F57
:10274000991FFC01E859FF4F80818170813089F524
:102750001D8E2BC08E8D282F30E08D8D482F50E0A0
:10276000C901880F991F820F931F880F991F880F27
:10277000991F840F951FFC01E459FF4F40818F8DF5
:10278000282F30E08D8D882F90E0B90102C075951B
:1027900067958A95E2F7CB01982F9170842F692F66
:1027A0000E94BA058D8D8F5F8D8F8D8D883090F250
:1027B00031C084E08D8F2BC08E8D282F30E08D8D21
:1027C000482F50E0C901880F991F820F931F880F6F
:1027D000991F880F991F840F951FFC01E459FF4F23
:1027E00040818F8D282F30E08D8D882F90E0B901AA
:1027F00002C0759567958A95E2F7CB01982F917085
:10280000842F692F0E94BA058D8D8F5F8D8F8D8DDE
:10281000883090F280E090E0A0E2B1E4898F9A8F56
:10282000AB8FBC8F698D7A8D8B8D9C8D20E030E0D5
:102830004AEF54E40E941F02DC01CB018D8B9E8B7A
:10284000AF8BB88F6D897E898F89988D20E030E0BD
:1028500040E85FE30E94790388232CF481E090E054
:102860009C8B8B8B3FC06D897E898F89988D20E0F2
:102870003FEF4FE757E40E94190318164CF5698D96
:102880007A8D8B8D9C8D20E030E040E251E40E94F7
:102890001F02DC01CB01BC01CD010E944900DC011B
:1028A000CB019C8B8B8B0FC088EC90E09A8B898B33
:1028B00089899A890197F1F79A8B898B8B899C89F1
:1028C00001979C8B8B8B8B899C89009769F714C02F
:1028D0006D897E898F89988D0E944900DC01CB012A
:1028E0009C8B8B8B8B899C89988B8F878F85988904
:1028F0000197F1F7988B8F878E8D282F30E0C901D3
:10290000880F991F820F931F880F991F880F991F97
:10291000FC01E559FF4F808160E00E94BA0580E02C
:1029200090E0A0E2B1E48B879C87AD87BE876B8582
:102930007C858D859E8520E030E04AEF54E40E943E
:102940001F02DC01CB018F839887A987BA876F812B
:10295000788589859A8520E030E040E85FE30E9431
:10296000790388232CF481E090E09E838D833FC01F
:102970006F81788589859A8520E03FEF4FE757E49E
:102980000E94190318164CF56B857C858D859E85F4
:1029900020E030E040E251E40E941F02DC01CB0164
:1029A000BC01CD010E944900DC01CB019E838D83D7
:1029B0000FC088EC90E09C838B838B819C81019776
:1029C000F1F79C838B838D819E8101979E838D83FC
:1029D0008D819E81009769F714C06F817885898504
:1029E0009A850E944900DC01CB019E838D838D81F5
:1029F0009E819A83898389819A810197F1F79A83CD
:102A000089836F960FB6F894DEBF0FBECDBFCF910E
:102A1000DF910895DF93CF9300D0CDB7DEB780E488
:102A20008A8319828A8180628A838A81877F8A83E6
:102A30008A818B7F8A83EDE2F0E08A818083EEE2F7
:102A4000F0E089818083EFE2F0E088E380830F90FB
:102A50000F90CF91DF910895DF93CF930F92CDB771
:102A6000DEB7898380917500813039F4EFE2F0E0C0
:102A70008981808382E0809375000F90CF91DF91F0
:102A80000895DF93CF93CDB7DEB7EFE2F0E088E3B0
:102A90008083EEE2F0E080818823DCF7EFE2F0E073
:102AA0008081CF91DF910895DF93CF93CDB7DEB7CB
:102AB000ADE2B0E0EDE2F0E0808180688C93CF91F0
:102AC000DF910895DF93CF93CDB7DEB7ADE2B0E0ED
:102AD000EDE2F0E080818F778C93CF91DF910895C4
:102AE000DF93CF930F92CDB7DEB7898380917500C6
:102AF000813039F4EFE2F0E08981808382E08093D5
:102B000075000F90CF91DF910895DF93CF9300D0A0
:102B1000CDB7DEB79A83898380917400E981FA8109
:102B20008083809175000F900F90CF91DF91089571
:102B30001F920F920FB60F9211248F93EF93FF9372
:102B4000DF93CF93CDB7DEB7EFE2F0E080818093E3
:102B5000740081E080937500CF91DF91FF91EF9138
:102B60008F910F900FBE0F901F901895DF93CF930A
:102B70000F92CDB7DEB70E94A3050E940A150E94EE
:102B8000BF070E94411589838981982F969580E01F
:102B9000692F0E949C11F5CF2F923F924F925F9226
:102BA0006F927F928F929F92AF92BF92CF92DF925D
:102BB000EF92FF920F931F93CF93DF93CDB7DEB7C2
:102BC000CA1BDB0B0FB6F894DEBF0FBECDBF099456
:102BD0002A88398848885F846E847D848C849B84AD
:102BE000AA84B984C884DF80EE80FD800C811B81BB
:102BF000AA81B981CE0FD11D0FB6F894DEBF0FBEEA
:0A2C0000CDBFED010895F894FFCF59
:102C0A0000000000000000004B10111218191A1BD6
:042C1A001C1D1E1F40
:00000001FF
