:100000000C942A000C9447000C9447000C94470071
:100010000C9447000C9447000C9447000C94470044
:100020000C9447000C9447000C9447000C94470034
:100030000C94970A0C9447000C9447000C944700CA
:100040000C9447000C9447000C9447000C94470014
:100050000C94470011241FBECFE5D8E0DEBFCDBF12
:1000600010E0A0E6B0E0EAE1F7E102C005900D92F1
:10007000A238B107D9F710E0A2E8B0E001C01D92A4
:10008000A438B107E1F70E94B50A0C948B0B0C94CD
:100090000000EF92FF920F931F937B018C0120E0F1
:1000A00030E040E05FE40E94490388238CF0C801FF
:1000B000B70120E030E040E05FE40E94C1010E940F
:1000C000A9039B01AC01205030404040504806C07D
:1000D000C801B7010E94A9039B01AC01B901CA0183
:1000E0001F910F91FF90EF900895A0E0B0E0EBE733
:1000F000F0E00C94540BDC012B01FA019C9192303E
:1001000008F439C1EB018881823008F433C194309E
:1001100069F4843009F02FC111969C91119789815F
:10012000981709F428C1A0E6B0E025C1843009F48D
:1001300021C18230A9F4923009F01DC19A01AD01AC
:1001400088E0EA010990AE01E90109929E0181501F
:10015000C1F7E201898111969C918923818308C1AD
:10016000923009F407C112962D903C901397EB0141
:100170008A819B811496AD90BD90CD90DC901797AD
:10018000EC80FD800E811F819101281B390BB90184
:1001900037FF04C066277727621B730B6032710537
:1001A0000CF061C0121613066CF537014801062EDB
:1001B00004C096948794779467940A94D2F721E0C8
:1001C00030E040E050E004C0220F331F441F551FB1
:1001D0006A95D2F721503040404050402E213F21B7
:1001E00040235123211531054105510521F021E01E
:1001F00030E040E050E079018A01E628F72808293C
:1002000019293CC0232BD1F1260E371E350146019A
:10021000062E04C096948794779467940A94D2F734
:1002200021E030E040E050E004C0220F331F441FC3
:10023000551F6A95D2F721503040404050402A2146
:100240003B214C215D21211531054105510521F04E
:1002500021E030E040E050E059016A01A628B728CB
:10026000C828D9280BC0821593052CF01C01AA249C
:10027000BB24650103C0EE24FF24870111969C91E5
:10028000D20111968C91981709F445C0992339F041
:10029000A80197012A193B094C095D0906C0A6016E
:1002A00095012E193F09400B510B57FD08C01182D3
:1002B0003382228224833583468357831DC081E0A5
:1002C00081833382228288279927DC01821B930B4A
:1002D000A40BB50B84839583A683B7830DC0220F2F
:1002E000331F441F551F24833583468357838281E0
:1002F000938101979383828324813581468157813D
:10030000DA01C9010197A109B1098F5F9F4FAF4F72
:10031000BF4328F30BC0918333822282EA0CFB1C7B
:100320000C1D1D1DE482F5820683178383E0808304
:10033000248135814681578157FF1AC0C901AA27F8
:1003400097FDA095BA2F81709070A070B0705695EF
:10035000479537952795822B932BA42BB52B848318
:100360009583A683B7838281938101969383828349
:10037000DF0101C0D201CD01CDB7DEB7E2E10C94BF
:10038000700BA0E2B0E0E7ECF1E00C94600B698345
:100390007A838B839C832D833E834F835887E9E048
:1003A000EE2EF12CEC0EFD1ECE010196B7010E943F
:1003B000D2048E010F5E1F4FCE010596B8010E9438
:1003C000D2048A8991E089278A8BC701B801AE01DE
:1003D000475E5F4F0E9475000E94FD03A096E6E015
:1003E0000C947C0BA0E2B0E0E8EFF1E00C94600B21
:1003F00069837A838B839C832D833E834F835887C5
:10040000F9E0EF2EF12CEC0EFD1ECE010196B701A6
:100410000E94D2048E010F5E1F4FCE010596B801D7
:100420000E94D204C701B801AE01475E5F4F0E942F
:1004300075000E94FD03A096E6E00C947C0BA0E200
:10044000B0E0E5E2F2E00C94540B69837A838B838D
:100450009C832D833E834F835887CE010196BE0136
:10046000675F7F4F0E94D204CE010596BE016F5E8A
:100470007F4F0E94D2049985923088F0898982301A
:10048000C8F0943019F4823051F404C0843029F457
:10049000923081F480E690E0C6C0923049F420E0CA
:1004A0009A858A89981321E02A87CE010996BBC0D4
:1004B000823049F420E09A858A89981321E02A8BBA
:1004C000CE014196B0C02D843E844F8458886D88FB
:1004D0007E888F88988CEE24FF248701AA24BB2471
:1004E000650140E050E060E070E0E0E0F0E0C10174
:1004F00081709070892BE9F0E60CF71C081D191D1E
:100500009A01AB012A0D3B1D4C1D5D1D80E090E062
:10051000A0E0B0E0E614F7040805190520F481E036
:1005200090E0A0E0B0E0BA01A901480F591F6A1F8E
:100530007B1FAA0CBB1CCC1CDD1C97FE08C081E0F5
:1005400090E0A0E0B0E0A82AB92ACA2ADB2A3196B6
:10055000E032F10549F0660C771C881C991C569412
:10056000479437942794C3CFFA85EA892B893C892D
:100570008B859C85280F391F2E5F3F4F17C0CA01FE
:1005800081709070892B61F016950795F794E79428
:1005900080E090E0A0E0B0E8E82AF92A0A2B1B2BC3
:1005A00076956795579547952F5F3F4F77FDE7CF36
:1005B0000CC0440F551F661F771F17FD4160EE0CDE
:1005C000FF1C001F111F21503040403090E05907A0
:1005D00090E0690790E4790760F32B8F3C8FDB0193
:1005E000CA018F779070A070B07080349105A1051A
:1005F000B10561F447FD0AC0E114F10401051105DC
:1006000029F0405C5F4F6F4F7F4F40781A8EFE1786
:1006100011F081E08A8F4D8F5E8F6F8F78A383E01A
:10062000898FCE0149960E94FD03A096E2E10C94C9
:10063000700BA8E1B0E0EFE1F3E00C94600B69838C
:100640007A838B839C832D833E834F83588789E0F5
:10065000E82EF12CEC0EFD1ECE010196B7010E9492
:10066000D2048E010F5E1F4FCE010596B8010E9485
:10067000D2048985823040F08989823028F0C70110
:10068000B8010E944A0501C08FEF6896E6E00C941D
:100690007C0BA8E1B0E0EFE4F3E00C94600B69831D
:1006A0007A838B839C832D833E834F83588789E095
:1006B000E82EF12CEC0EFD1ECE010196B7010E9432
:1006C000D2048E010F5E1F4FCE010596B8010E9425
:1006D000D2048985823040F08989823028F0C701B0
:1006E000B8010E944A0501C08FEF6896E6E00C94BD
:1006F0007C0BA8E1B0E0EFE7F3E00C94600B6983BA
:100700007A838B839C832D833E834F83588789E034
:10071000E82EF12CEC0EFD1ECE010196B7010E94D1
:10072000D2048E010F5E1F4FCE010596B8010E94C4
:10073000D2048985823040F08989823028F0C7014F
:10074000B8010E944A0501C081E06896E6E00C9479
:100750007C0BACE0B0E0EFEAF3E00C94640B69834F
:100760007A838B839C83CE010196BE016B5F7F4FA2
:100770000E94D2048D81823061F1823050F1843048
:1007800021F48E81882351F12EC02F81388537FDC9
:1007900020C06E812F3131051CF06623F9F023C093
:1007A0008EE190E0821B930B29853A854B855C8511
:1007B00004C056954795379527958A95D2F76623B5
:1007C000B1F050954095309521953F4F4F4F5F4F79
:1007D0000EC020E030E040E050E009C02FEF3FEFD6
:1007E0004FEF5FE704C020E030E040E050E8B9019F
:1007F000CA012C96E2E00C94800BDF92EF92FF92FC
:100800000F931F93FC01E480F58006811781D1804E
:100810008081823048F480E090E0A0E1B0E0E82AF6
:10082000F92A0A2B1B2BA5C0843009F49FC0823003
:1008300021F4EE24FF24870105C0E114F104010531
:10084000110519F4E0E0F0E096C0628173819FEF3A
:10085000623879070CF05BC022E83FEF261B370BAC
:100860002A3131052CF020E030E040E050E02AC091
:10087000B801A701022E04C0769567955795479554
:100880000A94D2F781E090E0A0E0B0E004C0880FC5
:10089000991FAA1FBB1F2A95D2F70197A109B10979
:1008A0008E219F21A023B1230097A105B10521F03E
:1008B00081E090E0A0E0B0E09A01AB01282B392B59
:1008C0004A2B5B2BDA01C9018F779070A070B07052
:1008D00080349105A105B10539F427FF09C0205CDA
:1008E0003F4F4F4F5F4F04C0215C3F4F4F4F5F4F13
:1008F000E0E0F0E02030A0E03A07A0E04A07A0E402
:100900005A0710F0E1E0F0E079018A0127C0603871
:10091000710564F5FB01E158FF4FD801C7018F77DE
:100920009070A070B07080349105A105B10539F4C4
:10093000E7FE0DC080E490E0A0E0B0E004C08FE3EB
:1009400090E0A0E0B0E0E80EF91E0A1F1B1F17FFA1
:1009500005C016950795F794E794319687E01695AC
:100960000795F794E7948A95D1F705C0EE24FF2404
:100970008701EFEFF0E06E2F679566276795902F60
:100980009F77D794DD24D7948E2F8695492F462BB9
:10099000582F5D29B701CA011F910F91FF90EF9069
:1009A000DF900895FC01DB01408151812281622F9B
:1009B0006F7770E0221F2227221F9381892F880FD3
:1009C000822B282F30E0991F9927991F11969C930D
:1009D000119721153105A9F54115510561057105DD
:1009E00011F482E037C082E89FEF13969C938E93B8
:1009F00012979A01AB0167E0220F331F441F551F66
:100A00006A95D1F783E08C930DC0220F331F441FEA
:100A1000551F12968D919C911397019713969C9355
:100A20008E931297203080E0380780E0480780E4FA
:100A3000580758F314962D933D934D935C93179755
:100A400008952F3F310579F4411551056105710570
:100A500019F484E08C93089564FF03C081E08C93C3
:100A600012C01C9210C02F57304013963C932E9307
:100A7000129783E08C9387E0440F551F661F771F02
:100A80008A95D1F7706414964D935D936D937C9322
:100A9000179708951F93DC01FB019C91923008F495
:100AA00047C08081823008F443C0943051F41196DD
:100AB0001C91843099F58181682F70E0611B710968
:100AC0003FC0843021F0923031F48230B9F181811D
:100AD000882389F12DC011961C9111978230F1F075
:100AE00081811817D9F412962D913C911397828128
:100AF00093818217930794F028173907BCF0149656
:100B00008D919D910D90BC91A02D248135814681C0
:100B10005781281739074A075B0718F4112341F05A
:100B20000AC082179307A407B50740F4112319F0F0
:100B300061E070E005C06FEF7FEF02C060E070E041
:100B4000CB011F910895DF93CF93CDB7DEB7EAE3D2
:100B5000F0E080EF8083E7E3F0E08FEB8083E4E375
:100B6000F0E08FEF8083E1E3F0E086E88083CF91CF
:100B7000DF910895DF93CF93CDB7DEB72B970FB6F4
:100B8000F894DEBF0FBECDBF8A836B8319828A8142
:100B90008830D8F58B81282F30E03B872A878A85DB
:100BA0009B85009731F02A853B8521303105B1F0D6
:100BB00029C0ABE3B0E0EBE3F0E08081482F8A810D
:100BC000282F30E081E090E0022E02C0880F991FAC
:100BD0000A94E2F7809584238C93F4C0ABE3B0E0F1
:100BE000EBE3F0E08081482F8A81282F30E081E01C
:100BF00090E0022E02C0880F991F0A94E2F7842B1E
:100C00008C93E0C082E08983DDC08A81883008F45B
:100C100045C08A81803108F041C08B81282F30E0A7
:100C20003987288788859985009731F02885398507
:100C300021303105C9F02FC0A8E3B0E0E8E3F0E0CF
:100C40008081482F8A81882F90E09C012770307026
:100C500081E090E0022E02C0880F991F0A94E2F70B
:100C6000809584238C93AEC0A8E3B0E0E8E3F0E085
:100C70008081482F8A81882F90E09C0127703070F6
:100C800081E090E0022E02C0880F991F0A94E2F7DB
:100C9000842B8C9397C082E0898394C08A818031B1
:100CA00008F445C08A81883108F041C08B81282F23
:100CB00030E03F832E838E819F81009731F02E811B
:100CC0003F8121303105C9F02FC0A5E3B0E0E5E355
:100CD000F0E08081482F8A81882F90E09C01277066
:100CE000307081E090E0022E02C0880F991F0A94B4
:100CF000E2F7809584238C9365C0A5E3B0E0E5E33B
:100D0000F0E08081482F8A81882F90E09C01277035
:100D1000307081E090E0022E02C0880F991F0A9483
:100D2000E2F7842B8C934EC082E089834BC08A818A
:100D3000883108F445C08A81803208F041C08B8137
:100D4000282F30E03D832C838C819D81009731F0EA
:100D50002C813D8121303105C9F02FC0A2E3B0E0E4
:100D6000E2E3F0E08081482F8A81882F90E09C01A7
:100D70002770307081E090E0022E02C0880F991F2A
:100D80000A94E2F7809584238C931CC0A2E3B0E020
:100D9000E2E3F0E08081482F8A81882F90E09C0177
:100DA0002770307081E090E0022E02C0880F991FFA
:100DB0000A94E2F7842B8C9305C082E0898302C0F9
:100DC00082E0898389812B960FB6F894DEBF0FBE2F
:100DD000CDBFCF91DF910895DF93CF9300D000D0A6
:100DE000CDB7DEB78A837C836B8319828B819C812C
:100DF000009709F46EC08A818830A0F4E9E3F0E03E
:100E00008081282F30E08A81882F90E0A90102C0DC
:100E1000559547958A95E2F7CA018170EB81FC816F
:100E2000808359C08A818830C8F08A818031B0F4CB
:100E3000E6E3F0E08081282F30E08A81882F90E07F
:100E400087709070A90102C0559547958A95E2F781
:100E5000CA018170EB81FC8180833DC08A81803131
:100E6000C8F08A818831B0F4E3E3F0E08081282F74
:100E700030E08A81882F90E087709070A90102C0CD
:100E8000559547958A95E2F7CA018170EB81FC81FF
:100E9000808321C08A818831C8F08A818032B0F491
:100EA000E0E3F0E08081282F30E08A81882F90E015
:100EB00087709070A90102C0559547958A95E2F711
:100EC000CA018170EB81FC81808305C082E0898347
:100ED00002C083E0898389810F900F900F900F905B
:100EE000CF91DF910895DF93CF9300D0CDB7DEB7D8
:100EF00089836A8389816A810E94BA050F900F9065
:100F0000CF91DF910895DF93CF93CDB7DEB72897C8
:100F10000FB6F894DEBF0FBECDBF9C838B837E835C
:100F20006D834F831A8219821DC08981282F30E07A
:100F30008B819C81FC01E20FF31F40818981282F66
:100F400030E08D819E81FC01E20FF31F9081842FA0
:100F5000692F0E94BA058A838A81882339F489819E
:100F60008F5F898399818F819817F8F228960FB641
:100F7000F894DEBF0FBECDBFCF91DF910895DF9310
:100F8000CF9300D00F92CDB7DEB71B8265C01A8217
:100F90001CC08B81282F30E08A81482F50E0C90186
:100FA000880F991F9C01220F331F220F331F820FBE
:100FB000931F840F951FFC01E859FF4F808161E06A
:100FC0000E9473078A818F5F8A838B81882F90E0CC
:100FD000880F991F9C01220F331F220F331F820F8E
:100FE000931FFC01E059FF4F90818A81891788F295
:100FF00019821CC08B81282F30E08981482F50E056
:10100000C901880F991F9C01220F331F220F331F24
:10101000820F931F840F951FFC01E459FF4F8081BD
:1010200061E00E94BA0589818F5F89838B81882F57
:1010300090E0880F991F9C01220F331F220F331F4E
:10104000820F931FFC01EF58FF4F90818981891710
:1010500088F28B818F5F8B838B81882309F497CFF4
:101060000F900F900F90CF91DF910895DF93CF9362
:10107000CDB7DEB763970FB6F894DEBF0FBECDBF16
:101080008B8B8FEF8F871A8A89C08B896A890E9420
:10109000EC0880E090E0A8E4B2E48B879C87AD8701
:1010A000BE876B857C858D859E8520E030E04AEF8C
:1010B00054E40E941F02DC01CB018F839887A9872B
:1010C000BA876F81788589859A8520E030E040E88D
:1010D0005FE30E94790388232CF481E090E09E83F3
:1010E0008D833FC06F81788589859A8520E03FEFA9
:1010F0004FE757E40E94190318164CF56B857C8561
:101100008D859E8520E030E040E251E40E941F0280
:10111000DC01CB01BC01CD010E944900DC01CB0107
:101120009E838D830FC088EC90E09C838B838B81A2
:101130009C810197F1F79C838B838D819E81019720
:101140009E838D838D819E81009769F714C06F8186
:10115000788589859A850E944900DC01CB019E83B0
:101160008D838D819E819A83898389819A8101975C
:10117000F1F79A8389838B890E944A09998B888B1E
:10118000288939898B896A89A9010E94AD098F87CD
:101190008F858F3FB9F48A898F5F8A8B8B89882FDF
:1011A00090E0880F991F9C01220F331F220F331FDD
:1011B000820F931FFC01EF58FF4F90818A89891796
:1011C00008F463CF8F8563960FB6F894DEBF0FBE29
:1011D000CDBFCF91DF910895DF93CF9300D00F92D1
:1011E000CDB7DEB78A836B8319823AC099818B8130
:1011F0009817D1F48A81282F30E08981482F50E058
:10120000C901880F991F9C01220F331F220F331F22
:10121000820F931F840F951FFC01E459FF4F8081BB
:1012200060E00E94BA0519C08A81282F30E08981C8
:10123000482F50E0C901880F991F9C01220F331FCE
:10124000220F331F820F931F840F951FFC01E45957
:10125000FF4F808161E00E94BA0589818F5F898399
:101260008A81882F90E0880F991F9C01220F331FDD
:10127000220F331F820F931FFC01EF58FF4F908105
:101280008981891708F4B2CF0F900F900F90CF91FA
:10129000DF910895DF93CF9300D000D00F92CDB7A8
:1012A000DEB78D838FEF9FEF9B838A831C82198229
:1012B00036C08D81282F30E08981482F50E0C90148
:1012C000880F991F9C01220F331F220F331F820F9B
:1012D000931F840F951FFC01E859FF4F80819E01E9
:1012E0002C5F3F4FB9010E94EC068C818823A1F44A
:1012F0008981282F30E081E090E002C0880F991F9B
:101300002A95E2F7809590959C018A819B818223A2
:1013100093239B838A8317C089818F5F89838D8103
:10132000882F90E0880F991F9C01220F331F220FF6
:10133000331F820F931FFC01E059FF4F9081898179
:10134000891708F4B6CF8A819B810F900F900F9078
:101350000F900F90CF91DF910895DF93CF93CDB78A
:10136000DEB727970FB6F894DEBF0FBECDBF8C83D4
:101370006D835F834E838E819F812FEF8F3F920716
:1013800019F48FEF8B8345C01A822FC08A81282FD2
:1013900030E08E819F81022E02C0969587950A9437
:1013A000E2F78170898389818823E1F48C81682F39
:1013B00070E08D81282F30E08A81482F50E0CB01EA
:1013C000880F991F880F991F820F931F880F991FED
:1013D000880F991F840F951FFC01EE58FF4F8081E5
:1013E0008B8317C08A818F5F8A838C81882F90E0DE
:1013F000880F991F9C01220F331F220F331F820F6A
:10140000931FFC01E059FF4F90818A81891708F4EE
:10141000BDCF8B8127960FB6F894DEBF0FBECDBF30
:10142000CF91DF910895DF93CF9300D0CDB7DEB792
:1014300080E58A8319828A8180628A838A81877F94
:101440008A838A818E7F8A838A818D7F8A8389813C
:101450008E7F89838A818B7F8A83EDE2F0E08A81A7
:101460008083EEE2F0E089818083EFE2F0E0108299
:101470000F900F90CF91DF910895DF93CF930F924C
:10148000CDB7DEB78983EFE2F0E089818083EEE2B9
:10149000F0E080818823DCF7EFE2F0E080810F90BC
:1014A000CF91DF910895DF93CF93CDB7DEB7ADE253
:1014B000B0E0EDE2F0E0808180688C93CF91DF9125
:1014C0000895DF93CF93CDB7DEB7ADE2B0E0EDE2A4
:1014D000F0E080818F778C93CF91DF910895DF9337
:1014E000CF930F92CDB7DEB789838091830081308F
:1014F00039F4EFE2F0E08981808382E08093830019
:101500000F90CF91DF910895DF93CF9300D0CDB7A7
:10151000DEB79A83898380918200E981FA81808392
:10152000809183000F900F90CF91DF9108951F92CB
:101530000F920FB60F9211248F93EF93FF93DF93C7
:10154000CF93CDB7DEB7EFE2F0E0808180938200E9
:1015500081E080938300CF91DF91FF91EF918F9194
:101560000F900FBE0F901F901895DF93CF93CDB7BC
:10157000DEB761970FB6F894DEBF0FBECDBF0E94F5
:10158000A3050E94130A8CE060E00E94BA050E9445
:10159000BF07188A80E00E943608898B89898F3FAF
:1015A00009F480C088898823A9F780E161E00E945E
:1015B000BA0580E090E0A8ECB2E48B879C87AD8709
:1015C000BE876B857C858D859E8520E030E04AEF67
:1015D00054E40E941F02DC01CB018F839887A98706
:1015E000BA876F81788589859A8520E030E040E868
:1015F0005FE30E94790388232CF481E090E09E83CE
:101600008D833FC06F81788589859A8520E03FEF83
:101610004FE757E40E94190318164CF56B857C853B
:101620008D859E8520E030E040E251E40E941F025B
:10163000DC01CB01BC01CD010E944900DC01CB01E2
:101640009E838D830FC088EC90E09C838B838B817D
:101650009C810197F1F79C838B838D819E810197FB
:101660009E838D838D819E81009769F714C06F8161
:10167000788589859A850E944900DC01CB019E838B
:101680008D838D819E819A83898389819A81019737
:10169000F1F79A83898389890E943D0A8F8781E0C7
:1016A000888B78CF188A76CF2F923F924F925F9295
:1016B0006F927F928F929F92AF92BF92CF92DF9262
:1016C000EF92FF920F931F93CF93DF93CDB7DEB7C7
:1016D000CA1BDB0B0FB6F894DEBF0FBECDBF09945B
:1016E0002A88398848885F846E847D848C849B84B2
:1016F000AA84B984C884DF80EE80FD800C811B81C0
:10170000AA81B981CE0FD11D0FB6F894DEBF0FBEEE
:0A171000CDBFED010895F894FFCF5E
:10171A0000000000000000000001020304050607A3
:10172A0004043738392F343536583132332D2E30B8
:02173A003D2B45
:00000001FF
